{
  "contractName": "Certificates",
  "abi": [
    {
      "inputs": [],
      "payable": false,
      "stateMutability": "nonpayable",
      "type": "constructor",
      "signature": "constructor"
    },
    {
      "constant": true,
      "inputs": [
        {
          "name": "_id",
          "type": "string"
        },
        {
          "name": "_skillId",
          "type": "uint256"
        }
      ],
      "name": "verifyCertificate",
      "outputs": [
        {
          "name": "",
          "type": "bool"
        }
      ],
      "payable": false,
      "stateMutability": "view",
      "type": "function",
      "signature": "0x0dface41"
    },
    {
      "constant": false,
      "inputs": [
        {
          "name": "_id",
          "type": "string"
        },
        {
          "name": "_skillId",
          "type": "uint256"
        }
      ],
      "name": "addSkill",
      "outputs": [],
      "payable": false,
      "stateMutability": "nonpayable",
      "type": "function",
      "signature": "0xa99d0a99"
    }
  ],
  "bytecode": "0x608060405234801561001057600080fd5b50610402806100206000396000f3fe60806040526004361061004b5763ffffffff7c01000000000000000000000000000000000000000000000000000000006000350416630dface418114610050578063a99d0a9914610086575b600080fd5b34801561005c57600080fd5b5061007061006b3660046102f7565b6100a8565b60405161007d9190610357565b60405180910390f35b34801561009257600080fd5b506100a66100a13660046102f7565b610214565b005b6000806000846040518082805190602001908083835b602083106100dd5780518252601f1990920191602091820191016100be565b51815160209384036101000a60001901801990921691161790529201948552506040519384900301909220549290921115915061020a90505760606000846040518082805190602001908083835b6020831061014a5780518252601f19909201916020918201910161012b565b51815160209384036101000a6000190180199092169116179052920194855250604080519485900382018520805480840287018401909252818652935091508301828280156101b857602002820191906000526020600020905b8154815260200190600101908083116101a4575b50939450600093505050505b81518110156101ff578382828151811015156101dc57fe5b9060200190602002015114156101f75760019250505061020e565b6001016101c4565b50600091505061020e565b5060005b92915050565b600080836040518082805190602001908083835b602083106102475780518252601f199092019160209182019101610228565b51815160209384036101000a6000190180199092169116179052920194855250604051938490038101909320805460018101825560009182529390209092019390935550505050565b6000601f820183136102a157600080fd5b81356102b46102af8261038c565b610365565b915080825260208301602083018583830111156102d057600080fd5b6102db8382846103bc565b50505092915050565b60006102f082356103b9565b9392505050565b6000806040838503121561030a57600080fd5b823567ffffffffffffffff81111561032157600080fd5b61032d85828601610290565b925050602061033e858286016102e4565b9150509250929050565b610351816103b4565b82525050565b6020810161020e8284610348565b60405181810167ffffffffffffffff8111828210171561038457600080fd5b604052919050565b600067ffffffffffffffff8211156103a357600080fd5b506020601f91909101601f19160190565b151590565b90565b8281833750600091015256fea265627a7a72305820f0a3425d86095c1d421868364a57ef08cf600e2c7ed2f5684f12cf4b74b9cdb56c6578706572696d656e74616cf50037",
  "source": "pragma solidity ^0.5.0;\r\n\r\npragma experimental ABIEncoderV2; // Enable experimental ABIEncoderV2\r\n\r\ncontract Certificates {\r\n\r\n    struct CertificateStruct {\r\n        uint[] skillIds;\r\n    }\r\n\r\n    // Uid and skillIds\r\n    mapping(string => CertificateStruct) Certificate;\r\n\r\n    function verifyCertificate(string memory _id, uint _skillId) public view returns(bool) {\r\n        if(Certificate[_id].skillIds.length > 0){\r\n            uint[] memory skills = Certificate[_id].skillIds;\r\n            for(uint i=0;i<skills.length;i++){\r\n                if(skills[i] == _skillId) return true;\r\n            }\r\n            return false;\r\n        }\r\n        else{\r\n            return false;\r\n        }\r\n    }\r\n\r\n    constructor() public {}\r\n\r\n    function addSkill(string memory _id, uint _skillId) public {\r\n        CertificateStruct storage cert = Certificate[_id];\r\n        cert.skillIds.push(_skillId);\r\n    }\r\n}\r\n",
  "sourcePath": "C:/Users/Rinku/Desktop/major/skillverifyx/skillVerifyX-back/contracts/Certificates.sol",
  "compiler": {
    "name": "solc",
    "version": "0.5.0+commit.1d4f565a.Emscripten.clang"
  },
  "schemaVersion": "3.4.16",
  "updatedAt": "2024-03-01T18:20:08.391Z",
  "networkType": "ethereum",
  "devdoc": {
    "methods": {}
  },
  "userdoc": {
    "methods": {}
  }
}