{
  "contractName": "Certificates",
  "abi": [
    {
      "inputs": [],
      "payable": false,
      "stateMutability": "nonpayable",
      "type": "constructor"
    },
    {
      "constant": true,
      "inputs": [
        {
          "internalType": "string",
          "name": "_id",
          "type": "string"
        },
        {
          "internalType": "uint256",
          "name": "_skillId",
          "type": "uint256"
        }
      ],
      "name": "verifyCertificate",
      "outputs": [
        {
          "internalType": "bool",
          "name": "",
          "type": "bool"
        }
      ],
      "payable": false,
      "stateMutability": "view",
      "type": "function"
    },
    {
      "constant": false,
      "inputs": [
        {
          "internalType": "string",
          "name": "_id",
          "type": "string"
        },
        {
          "internalType": "uint256",
          "name": "_skillId",
          "type": "uint256"
        }
      ],
      "name": "addSkill",
      "outputs": [],
      "payable": false,
      "stateMutability": "nonpayable",
      "type": "function"
    }
  ],
  "bytecode": "0x608060405234801561001057600080fd5b5061039d806100206000396000f3fe608060405234801561001057600080fd5b50600436106100365760003560e01c80630dface411461003b578063a99d0a9914610064575b600080fd5b61004e6100493660046101f7565b610079565b60405161005b9190610299565b60405180910390f35b6100776100723660046101f7565b61015e565b005b60008060008460405161008c9190610286565b9081526040519081900360200190205411156101545760606000846040516100b49190610286565b908152604080519182900360209081018320805480830285018301909352828452919083018282801561010657602002820191906000526020600020905b8154815260200190600101908083116100f2575b50939450600093505050505b8151811015610149578382828151811061012857fe5b6020026020010151141561014157600192505050610158565b600101610112565b506000915050610158565b5060005b92915050565b6000808360405161016f9190610286565b908152604051602091819003820190208054600181018255600091825291902001919091555050565b600082601f8301126101a957600080fd5b81356101bc6101b7826102ce565b6102a7565b915080825260208301602083018583830111156101d857600080fd5b6101e3838284610307565b50505092915050565b803561015881610343565b6000806040838503121561020a57600080fd5b823567ffffffffffffffff81111561022157600080fd5b61022d85828601610198565b925050602061023e858286016101ec565b9150509250929050565b610251816102ff565b82525050565b6000610262826102f6565b61026c81856102fa565b935061027c818560208601610313565b9290920192915050565b60006102928284610257565b9392505050565b602081016101588284610248565b60405181810167ffffffffffffffff811182821017156102c657600080fd5b604052919050565b600067ffffffffffffffff8211156102e557600080fd5b506020601f91909101601f19160190565b5190565b919050565b151590565b90565b82818337506000910152565b60005b8381101561032e578181015183820152602001610316565b8381111561033d576000848401525b50505050565b61034c81610304565b811461035757600080fd5b5056fea365627a7a72315820920f6b8f3cd45a17f6f0d260aa4c05cd4a0c9cb0f21d23af9ef1d4ee90a5388b6c6578706572696d656e74616cf564736f6c63430005100040",
  "source": "pragma solidity ^0.5.0;\r\n\r\npragma experimental ABIEncoderV2; // Enable experimental ABIEncoderV2\r\n\r\ncontract Certificates {\r\n\r\n    struct CertificateStruct {\r\n        uint[] skillIds;\r\n    }\r\n\r\n    // Uid and skillIds\r\n    mapping(string => CertificateStruct) Certificate;\r\n\r\n    function verifyCertificate(string memory _id, uint _skillId) public view returns(bool) {\r\n        if(Certificate[_id].skillIds.length > 0){\r\n            uint[] memory skills = Certificate[_id].skillIds;\r\n            for(uint i=0;i<skills.length;i++){\r\n                if(skills[i] == _skillId) return true;\r\n            }\r\n            return false;\r\n        }\r\n        else{\r\n            return false;\r\n        }\r\n    }\r\n\r\n    constructor() public {}\r\n\r\n    function addSkill(string memory _id, uint _skillId) public {\r\n        CertificateStruct storage cert = Certificate[_id];\r\n        cert.skillIds.push(_skillId);\r\n    }\r\n}\r\n",
  "sourcePath": "D:\\MajorProject\\skillverifyx\\SkillVerifyX-back\\contracts\\Certificates.sol",
  "compiler": {
    "name": "solc",
    "version": "0.5.16+commit.9c3226ce.Emscripten.clang"
  },
  "schemaVersion": "3.4.16",
  "updatedAt": "2024-03-02T02:36:16.103Z",
  "networkType": "ethereum",
  "devdoc": {
    "methods": {}
  },
  "userdoc": {
    "methods": {}
  }
}