{
  "contractName": "Users",
  "abi": [
    {
      "constant": true,
      "inputs": [],
      "name": "UsersCount",
      "outputs": [
        {
          "name": "",
          "type": "uint256"
        }
      ],
      "payable": false,
      "stateMutability": "view",
      "type": "function",
      "signature": "0xc0c9ab71"
    },
    {
      "inputs": [],
      "payable": false,
      "stateMutability": "nonpayable",
      "type": "constructor",
      "signature": "constructor"
    },
    {
      "constant": false,
      "inputs": [],
      "name": "returnTest",
      "outputs": [
        {
          "name": "",
          "type": "string"
        }
      ],
      "payable": false,
      "stateMutability": "nonpayable",
      "type": "function",
      "signature": "0x57ecc147"
    },
    {
      "constant": true,
      "inputs": [
        {
          "name": "_id",
          "type": "string"
        }
      ],
      "name": "getUser",
      "outputs": [
        {
          "name": "",
          "type": "uint256[]"
        },
        {
          "name": "",
          "type": "string[]"
        }
      ],
      "payable": false,
      "stateMutability": "view",
      "type": "function",
      "signature": "0x31feb671"
    },
    {
      "constant": true,
      "inputs": [],
      "name": "getAllUserIds",
      "outputs": [
        {
          "name": "",
          "type": "string[]"
        }
      ],
      "payable": false,
      "stateMutability": "view",
      "type": "function",
      "signature": "0xbe4906c9"
    },
    {
      "constant": false,
      "inputs": [
        {
          "name": "_id",
          "type": "string"
        }
      ],
      "name": "createUser",
      "outputs": [],
      "payable": false,
      "stateMutability": "nonpayable",
      "type": "function",
      "signature": "0x507ffba5"
    },
    {
      "constant": false,
      "inputs": [
        {
          "name": "_id",
          "type": "string"
        },
        {
          "name": "_skillId",
          "type": "uint256"
        },
        {
          "name": "_endorsementId",
          "type": "string"
        }
      ],
      "name": "addEndorsement",
      "outputs": [],
      "payable": false,
      "stateMutability": "nonpayable",
      "type": "function",
      "signature": "0xcb216bef"
    }
  ],
  "bytecode": "0x60806040526000805534801561001457600080fd5b50610ad5806100246000396000f3fe6080604052600436106100775763ffffffff7c010000000000000000000000000000000000000000000000000000000060003504166331feb671811461007c578063507ffba5146100b357806357ecc147146100d5578063be4906c9146100f7578063c0c9ab7114610119578063cb216bef1461013b575b600080fd5b34801561008857600080fd5b5061009c6100973660046107a6565b61015b565b6040516100aa9291906109a2565b60405180910390f35b3480156100bf57600080fd5b506100d36100ce3660046107a6565b610394565b005b3480156100e157600080fd5b506100ea610474565b6040516100aa91906109c7565b34801561010357600080fd5b5061010c6104ac565b6040516100aa9190610991565b34801561012557600080fd5b5061012e610584565b6040516100aa91906109ee565b34801561014757600080fd5b506100d36101563660046107e3565b61058a565b60608060606001846040518082805190602001908083835b602083106101925780518252601f199092019160209182019101610173565b51815160209384036101000a60001901801990921691161790529201948552506040805194859003820185208054808402870184019092528186529350915083018282801561020057602002820191906000526020600020905b8154815260200190600101908083116101ec575b505050505090506060815160405190808252806020026020018201604052801561023e57816020015b60608152602001906001900390816102295790505b50905060005b8251811015610389576001866040518082805190602001908083835b6020831061027f5780518252601f199092019160209182019101610260565b6001836020036101000a0380198251168184511680821785525050505050509050019150509081526020016040518091039020600101600084838151811015156102c557fe5b60209081029190910181015182528181019290925260409081016000208054825160026001831615610100026000190190921691909104601f8101859004850282018501909352828152929091908301828280156103645780601f1061033957610100808354040283529160200191610364565b820191906000526020600020905b81548152906001019060200180831161034757829003601f168201915b5050505050828281518110151561037757fe5b60209081029091010152600101610244565b509092509050915091565b60008054600190810182556040805160208082019485528183018352938152905184519193859282918401908083835b602083106103e35780518252601f1990920191602091820191016103c4565b51815160209384036101000a60001901801990921691161790529201948552506040519384900381019093208451805191946104249450859350019061066d565b50506002805460018101808355600092909252835191925061046f917f405787fa12a823e0f2b7631cc41b3ba8828b3321ca811111fa75cd3aa3bb5ace9091019060208501906106b8565b505050565b60408051808201909152600881527f537563636573732100000000000000000000000000000000000000000000000060208201525b90565b60606002805480602002602001604051908101604052809291908181526020016000905b8282101561057b5760008481526020908190208301805460408051601f60026000196101006001871615020190941693909304928301859004850281018501909152818152928301828280156105675780601f1061053c57610100808354040283529160200191610567565b820191906000526020600020905b81548152906001019060200180831161054a57829003601f168201915b5050505050815260200190600101906104d0565b50505050905090565b60005481565b600082116105cd576040517f08c379a00000000000000000000000000000000000000000000000000000000081526004016105c4906109d8565b60405180910390fd5b60006001846040518082805190602001908083835b602083106106015780518252601f1990920191602091820191016105e2565b51815160209384036101000a60001901801990921691161790529201948552506040805194859003820190942080546001808201835560008381528481209092018a9055898252820183529490942086519495506106669490935090860191506106b8565b5050505050565b8280548282559060005260206000209081019282156106a8579160200282015b828111156106a857825182559160200191906001019061068d565b506106b4929150610725565b5090565b828054600181600116156101000203166002900490600052602060002090601f016020900481019282601f106106f957805160ff19168380011785556106a8565b828001600101855582156106a857918201828111156106a857825182559160200191906001019061068d565b6104a991905b808211156106b4576000815560010161072b565b6000601f8201831361075057600080fd5b813561076361075e82610a23565b6109fc565b9150808252602083016020830185838301111561077f57600080fd5b61078a838284610a55565b50505092915050565b600061079f82356104a9565b9392505050565b6000602082840312156107b857600080fd5b813567ffffffffffffffff8111156107cf57600080fd5b6107db8482850161073f565b949350505050565b6000806000606084860312156107f857600080fd5b833567ffffffffffffffff81111561080f57600080fd5b61081b8682870161073f565b935050602061082c86828701610793565b925050604084013567ffffffffffffffff81111561084957600080fd5b6108558682870161073f565b9150509250925092565b600061086a82610a51565b8084526020840193508360208202850161088385610a4b565b60005b848110156108ba57838303885261089e83835161091d565b92506108a982610a4b565b602098909801979150600101610886565b50909695505050505050565b60006108d182610a51565b8084526020840193506108e383610a4b565b60005b82811015610913576108f9868351610982565b61090282610a4b565b6020969096019591506001016108e6565b5093949350505050565b600061092882610a51565b80845261093c816020860160208601610a61565b61094581610a91565b9093016020019392505050565b601081527f496e76616c696420736b696c6c20494400000000000000000000000000000000602082015260400190565b61098b816104a9565b82525050565b6020808252810161079f818461085f565b604080825281016109b381856108c6565b905081810360208301526107db818461085f565b6020808252810161079f818461091d565b602080825281016109e881610952565b92915050565b602081016109e88284610982565b60405181810167ffffffffffffffff81118282101715610a1b57600080fd5b604052919050565b600067ffffffffffffffff821115610a3a57600080fd5b506020601f91909101601f19160190565b60200190565b5190565b82818337506000910152565b60005b83811015610a7c578181015183820152602001610a64565b83811115610a8b576000848401525b50505050565b601f01601f19169056fea265627a7a72305820b949552de82f53ee72db68ecd0fe385321b72d3615cd5682ca1717ce75010ca56c6578706572696d656e74616cf50037",
  "source": "pragma solidity ^0.5.0;\r\n\r\npragma experimental ABIEncoderV2; // Enable experimental ABIEncoderV2\r\n\r\ncontract Users {\r\n    uint public UsersCount = 0;\r\n\r\n    struct Skill {\r\n        uint id;\r\n        string name;\r\n    }\r\n\r\n    struct User {\r\n        // User specified skills.\r\n        uint[] skillIds;\r\n        // Skill id and endorsement id\r\n        mapping(uint => string) endorsements;\r\n    }\r\n\r\n    mapping(string => User) users;\r\n    string[] userIds;\r\n\r\n    constructor() public {}\r\n\r\n    function returnTest() public returns(string memory){\r\n        return \"Success!\";\r\n    }\r\n\r\n    // Returns endorsed skillIds and endorsementIds\r\n    function getUser(string memory _id) public view returns(uint[] memory, string[] memory) {\r\n        uint[] memory userSkills = users[_id].skillIds;\r\n        string[] memory userEndorsements = new string[](userSkills.length);\r\n\r\n        for (uint i = 0; i < userSkills.length; i++) {\r\n            userEndorsements[i] = users[_id].endorsements[userSkills[i]];\r\n        }\r\n\r\n        return (userSkills, userEndorsements);\r\n    }\r\n\r\n    function getAllUserIds() public view returns(string[] memory){\r\n        return userIds;\r\n    }\r\n\r\n    function createUser(string memory _id) public {\r\n        UsersCount++;\r\n        users[_id] = User(new uint[](0));\r\n        userIds.push(_id);\r\n    }\r\n\r\n    function addEndorsement(string memory _id, uint _skillId, string memory _endorsementId) public {\r\n        require(_skillId > 0, \"Invalid skill ID\");\r\n\r\n        User storage user = users[_id];\r\n        user.skillIds.push(_skillId);\r\n\r\n        user.endorsements[_skillId] = _endorsementId;\r\n    }\r\n}\r\n",
  "sourcePath": "C:/Users/Rinku/Desktop/major/skillverifyx/skillVerifyX-back/contracts/Users.sol",
  "compiler": {
    "name": "solc",
    "version": "0.5.0+commit.1d4f565a.Emscripten.clang"
  },
  "schemaVersion": "3.0.1",
  "updatedAt": "2024-03-02T03:57:30.831Z",
  "devdoc": {
    "methods": {}
  },
  "userdoc": {
    "methods": {}
  }
}