{
  "contractName": "Users",
  "abi": [
    {
      "inputs": [],
      "payable": false,
      "stateMutability": "nonpayable",
      "type": "constructor"
    },
    {
      "constant": true,
      "inputs": [],
      "name": "UsersCount",
      "outputs": [
        {
          "internalType": "uint256",
          "name": "",
          "type": "uint256"
        }
      ],
      "payable": false,
      "stateMutability": "view",
      "type": "function"
    },
    {
      "constant": false,
      "inputs": [],
      "name": "returnTest",
      "outputs": [
        {
          "internalType": "string",
          "name": "",
          "type": "string"
        }
      ],
      "payable": false,
      "stateMutability": "nonpayable",
      "type": "function"
    },
    {
      "constant": true,
      "inputs": [
        {
          "internalType": "string",
          "name": "_id",
          "type": "string"
        }
      ],
      "name": "getUser",
      "outputs": [
        {
          "internalType": "uint256[]",
          "name": "",
          "type": "uint256[]"
        },
        {
          "internalType": "string[]",
          "name": "",
          "type": "string[]"
        }
      ],
      "payable": false,
      "stateMutability": "view",
      "type": "function"
    },
    {
      "constant": true,
      "inputs": [],
      "name": "getAllUserIds",
      "outputs": [
        {
          "internalType": "string[]",
          "name": "",
          "type": "string[]"
        }
      ],
      "payable": false,
      "stateMutability": "view",
      "type": "function"
    },
    {
      "constant": false,
      "inputs": [
        {
          "internalType": "string",
          "name": "_id",
          "type": "string"
        }
      ],
      "name": "createUser",
      "outputs": [],
      "payable": false,
      "stateMutability": "nonpayable",
      "type": "function"
    },
    {
      "constant": false,
      "inputs": [
        {
          "internalType": "string",
          "name": "_id",
          "type": "string"
        },
        {
          "internalType": "uint256",
          "name": "_skillId",
          "type": "uint256"
        },
        {
          "internalType": "string",
          "name": "_endorsementId",
          "type": "string"
        }
      ],
      "name": "addEndorsement",
      "outputs": [],
      "payable": false,
      "stateMutability": "nonpayable",
      "type": "function"
    }
  ],
  "bytecode": "0x60806040526000805534801561001457600080fd5b506109da806100246000396000f3fe608060405234801561001057600080fd5b50600436106100625760003560e01c806331feb67114610067578063507ffba51461009157806357ecc147146100a6578063be4906c9146100bb578063c0c9ab71146100d0578063cb216bef146100e5575b600080fd5b61007a610075366004610619565b6100f8565b60405161008892919061087f565b60405180910390f35b6100a461009f366004610619565b6102b4565b005b6100ae610358565b60405161008891906108a4565b6100c361037b565b604051610088919061086e565b6100d8610453565b60405161008891906108c5565b6100a46100f3366004610656565b610459565b606080606060018460405161010d9190610862565b908152604080519182900360209081018320805480830285018301909352828452919083018282801561015f57602002820191906000526020600020905b81548152602001906001019080831161014b575b505050505090506060815160405190808252806020026020018201604052801561019d57816020015b60608152602001906001900390816101885790505b50905060005b82518110156102a9576001866040516101bc9190610862565b908152602001604051809103902060010160008483815181106101db57fe5b602002602001015181526020019081526020016000208054600181600116156101000203166002900480601f0160208091040260200160405190810160405280929190818152602001828054600181600116156101000203166002900480156102855780601f1061025a57610100808354040283529160200191610285565b820191906000526020600020905b81548152906001019060200180831161026857829003601f168201915b505050505082828151811061029657fe5b60209081029190910101526001016101a3565b509092509050915091565b600080546001908101825560408051602081019384528082018252928352516102de908490610862565b908152602001604051809103902060008201518160000190805190602001906103089291906104e2565b505060028054600181018083556000929092528351919250610353917f405787fa12a823e0f2b7631cc41b3ba8828b3321ca811111fa75cd3aa3bb5ace90910190602085019061052d565b505050565b604080518082019091526008815267537563636573732160c01b60208201525b90565b60606002805480602002602001604051908101604052809291908181526020016000905b8282101561044a5760008481526020908190208301805460408051601f60026000196101006001871615020190941693909304928301859004850281018501909152818152928301828280156104365780601f1061040b57610100808354040283529160200191610436565b820191906000526020600020905b81548152906001019060200180831161041957829003601f168201915b50505050508152602001906001019061039f565b50505050905090565b60005481565b600082116104825760405162461bcd60e51b8152600401610479906108b5565b60405180910390fd5b60006001846040516104949190610862565b90815260408051602092819003830190208054600180820183556000838152858120909201889055878252820184529190912084519193506104db9290919085019061052d565b5050505050565b82805482825590600052602060002090810192821561051d579160200282015b8281111561051d578251825591602001919060010190610502565b5061052992915061059a565b5090565b828054600181600116156101000203166002900490600052602060002090601f016020900481019282601f1061056e57805160ff191683800117855561051d565b8280016001018555821561051d579182018281111561051d578251825591602001919060010190610502565b61037891905b8082111561052957600081556001016105a0565b600082601f8301126105c557600080fd5b81356105d86105d3826108fa565b6108d3565b915080825260208301602083018583830111156105f457600080fd5b6105ff83828461093a565b50505092915050565b803561061381610980565b92915050565b60006020828403121561062b57600080fd5b813567ffffffffffffffff81111561064257600080fd5b61064e848285016105b4565b949350505050565b60008060006060848603121561066b57600080fd5b833567ffffffffffffffff81111561068257600080fd5b61068e868287016105b4565b935050602061069f86828701610608565b925050604084013567ffffffffffffffff8111156106bc57600080fd5b6106c8868287016105b4565b9150509250925092565b60006106de83836107c0565b9392505050565b60006106f18383610853565b505060200190565b600061070482610928565b61070e818561092c565b93508360208202850161072085610922565b8060005b8581101561075a578484038952815161073d85826106d2565b945061074883610922565b60209a909a0199925050600101610724565b5091979650505050505050565b600061077282610928565b61077c818561092c565b935061078783610922565b8060005b838110156107b557815161079f88826106e5565b97506107aa83610922565b92505060010161078b565b509495945050505050565b60006107cb82610928565b6107d5818561092c565b93506107e5818560208601610946565b6107ee81610976565b9093019392505050565b600061080382610928565b61080d8185610935565b935061081d818560208601610946565b9290920192915050565b600061083460108361092c565b6f125b9d985b1a59081cdada5b1b08125160821b815260200192915050565b61085c81610378565b82525050565b60006106de82846107f8565b602080825281016106de81846106f9565b604080825281016108908185610767565b9050818103602083015261064e81846106f9565b602080825281016106de81846107c0565b6020808252810161061381610827565b602081016106138284610853565b60405181810167ffffffffffffffff811182821017156108f257600080fd5b604052919050565b600067ffffffffffffffff82111561091157600080fd5b506020601f91909101601f19160190565b60200190565b5190565b90815260200190565b919050565b82818337506000910152565b60005b83811015610961578181015183820152602001610949565b83811115610970576000848401525b50505050565b601f01601f191690565b61098981610378565b811461099457600080fd5b5056fea365627a7a72315820cfce4194171110e465ca771a23c47e591273e009cbe42450a8344a033e5129ae6c6578706572696d656e74616cf564736f6c63430005100040",
  "source": "pragma solidity ^0.5.16;\r\n\r\npragma experimental ABIEncoderV2; // Enable experimental ABIEncoderV2\r\n\r\ncontract Users {\r\n    uint public UsersCount = 0;\r\n\r\n    struct Skill {\r\n        uint id;\r\n        string name;\r\n    }\r\n\r\n    struct User {\r\n        // User specified skills.\r\n        uint[] skillIds;\r\n        // Skill id and endorsement id\r\n        mapping(uint => string) endorsements;\r\n    }\r\n\r\n    mapping(string => User) users;\r\n    string[] userIds;\r\n\r\n    constructor() public {}\r\n\r\n    function returnTest() public returns(string memory){\r\n        return \"Success!\";\r\n    }\r\n\r\n    // Returns endorsed skillIds and endorsementIds\r\n    function getUser(string memory _id) public view returns(uint[] memory, string[] memory) {\r\n        uint[] memory userSkills = users[_id].skillIds;\r\n        string[] memory userEndorsements = new string[](userSkills.length);\r\n\r\n        for (uint i = 0; i < userSkills.length; i++) {\r\n            userEndorsements[i] = users[_id].endorsements[userSkills[i]];\r\n        }\r\n\r\n        return (userSkills, userEndorsements);\r\n    }\r\n\r\n    function getAllUserIds() public view returns(string[] memory){\r\n        return userIds;\r\n    }\r\n\r\n    function createUser(string memory _id) public {\r\n        UsersCount++;\r\n        users[_id] = User(new uint[](0));\r\n        userIds.push(_id);\r\n    }\r\n\r\n    function addEndorsement(string memory _id, uint _skillId, string memory _endorsementId) public {\r\n        require(_skillId > 0, \"Invalid skill ID\");\r\n\r\n        User storage user = users[_id];\r\n        user.skillIds.push(_skillId);\r\n\r\n        user.endorsements[_skillId] = _endorsementId;\r\n    }\r\n}\r\n",
  "sourcePath": "D:\\MajorProject\\skillverifyx\\SkillVerifyX-back\\contracts\\Users.sol",
  "compiler": {
    "name": "solc",
    "version": "0.5.16+commit.9c3226ce.Emscripten.clang"
  },
  "schemaVersion": "3.4.16",
  "updatedAt": "2024-03-01T18:20:08.386Z",
  "networkType": "ethereum",
  "devdoc": {
    "methods": {}
  },
  "userdoc": {
    "methods": {}
  }
}