{
  "contractName": "Users",
  "abi": [
    {
      "inputs": [],
      "payable": false,
      "stateMutability": "nonpayable",
      "type": "constructor"
    },
    {
      "constant": true,
      "inputs": [],
      "name": "UsersCount",
      "outputs": [
        {
          "internalType": "uint256",
          "name": "",
          "type": "uint256"
        }
      ],
      "payable": false,
      "stateMutability": "view",
      "type": "function"
    },
    {
      "constant": false,
      "inputs": [],
      "name": "returnTest",
      "outputs": [
        {
          "internalType": "string",
          "name": "",
          "type": "string"
        }
      ],
      "payable": false,
      "stateMutability": "nonpayable",
      "type": "function"
    },
    {
      "constant": true,
      "inputs": [
        {
          "internalType": "string",
          "name": "_id",
          "type": "string"
        }
      ],
      "name": "getUser",
      "outputs": [
        {
          "internalType": "uint256[]",
          "name": "",
          "type": "uint256[]"
        },
        {
          "internalType": "string[]",
          "name": "",
          "type": "string[]"
        }
      ],
      "payable": false,
      "stateMutability": "view",
      "type": "function"
    },
    {
      "constant": false,
      "inputs": [
        {
          "internalType": "string",
          "name": "_id",
          "type": "string"
        }
      ],
      "name": "createUser",
      "outputs": [],
      "payable": false,
      "stateMutability": "nonpayable",
      "type": "function"
    },
    {
      "constant": false,
      "inputs": [
        {
          "internalType": "string",
          "name": "_id",
          "type": "string"
        },
        {
          "internalType": "uint256",
          "name": "_skillId",
          "type": "uint256"
        },
        {
          "internalType": "string",
          "name": "_endorsementId",
          "type": "string"
        }
      ],
      "name": "addEndorsement",
      "outputs": [],
      "payable": false,
      "stateMutability": "nonpayable",
      "type": "function"
    }
  ],
  "bytecode": "0x60806040526000805534801561001457600080fd5b50610883806100246000396000f3fe608060405234801561001057600080fd5b50600436106100575760003560e01c806331feb6711461005c578063507ffba51461008657806357ecc1471461009b578063c0c9ab71146100b0578063cb216bef146100c5575b600080fd5b61006f61006a3660046104d7565b6100d8565b60405161007d92919061072c565b60405180910390f35b6100996100943660046104d7565b610294565b005b6100a36102ee565b60405161007d9190610751565b6100b8610311565b60405161007d9190610772565b6100996100d3366004610514565b610317565b60608060606001846040516100ed9190610720565b908152604080519182900360209081018320805480830285018301909352828452919083018282801561013f57602002820191906000526020600020905b81548152602001906001019080831161012b575b505050505090506060815160405190808252806020026020018201604052801561017d57816020015b60608152602001906001900390816101685790505b50905060005b82518110156102895760018660405161019c9190610720565b908152602001604051809103902060010160008483815181106101bb57fe5b602002602001015181526020019081526020016000208054600181600116156101000203166002900480601f0160208091040260200160405190810160405280929190818152602001828054600181600116156101000203166002900480156102655780601f1061023a57610100808354040283529160200191610265565b820191906000526020600020905b81548152906001019060200180831161024857829003601f168201915b505050505082828151811061027657fe5b6020908102919091010152600101610183565b509092509050915091565b600080546001908101825560408051602081019384528082018252928352516102be908490610720565b908152602001604051809103902060008201518160000190805190602001906102e89291906103a0565b50505050565b604080518082019091526008815267537563636573732160c01b60208201525b90565b60005481565b600082116103405760405162461bcd60e51b815260040161033790610762565b60405180910390fd5b60006001846040516103529190610720565b9081526040805160209281900383019020805460018082018355600083815285812090920188905587825282018452919091208451919350610399929091908501906103eb565b5050505050565b8280548282559060005260206000209081019282156103db579160200282015b828111156103db5782518255916020019190600101906103c0565b506103e7929150610458565b5090565b828054600181600116156101000203166002900490600052602060002090601f016020900481019282601f1061042c57805160ff19168380011785556103db565b828001600101855582156103db57918201828111156103db5782518255916020019190600101906103c0565b61030e91905b808211156103e7576000815560010161045e565b600082601f83011261048357600080fd5b8135610496610491826107a7565b610780565b915080825260208301602083018583830111156104b257600080fd5b6104bd8382846107e7565b50505092915050565b80356104d181610829565b92915050565b6000602082840312156104e957600080fd5b813567ffffffffffffffff81111561050057600080fd5b61050c84828501610472565b949350505050565b60008060006060848603121561052957600080fd5b833567ffffffffffffffff81111561054057600080fd5b61054c86828701610472565b935050602061055d868287016104c6565b925050604084013567ffffffffffffffff81111561057a57600080fd5b61058686828701610472565b9150509250925092565b600061059c838361067e565b9392505050565b60006105af8383610711565b505060200190565b60006105c2826107d5565b6105cc81856107d9565b9350836020820285016105de856107cf565b8060005b8581101561061857848403895281516105fb8582610590565b9450610606836107cf565b60209a909a01999250506001016105e2565b5091979650505050505050565b6000610630826107d5565b61063a81856107d9565b9350610645836107cf565b8060005b8381101561067357815161065d88826105a3565b9750610668836107cf565b925050600101610649565b509495945050505050565b6000610689826107d5565b61069381856107d9565b93506106a38185602086016107f3565b6106ac8161081f565b9093019392505050565b60006106c1826107d5565b6106cb81856107e2565b93506106db8185602086016107f3565b9290920192915050565b60006106f26010836107d9565b6f125b9d985b1a59081cdada5b1b08125160821b815260200192915050565b61071a8161030e565b82525050565b600061059c82846106b6565b6040808252810161073d8185610625565b9050818103602083015261050c81846105b7565b6020808252810161059c818461067e565b602080825281016104d1816106e5565b602081016104d18284610711565b60405181810167ffffffffffffffff8111828210171561079f57600080fd5b604052919050565b600067ffffffffffffffff8211156107be57600080fd5b506020601f91909101601f19160190565b60200190565b5190565b90815260200190565b919050565b82818337506000910152565b60005b8381101561080e5781810151838201526020016107f6565b838111156102e85750506000910152565b601f01601f191690565b6108328161030e565b811461083d57600080fd5b5056fea365627a7a72315820b4ee0836621ead3ebecb3e87b1e4151b70fe37fdf870dafcf09db4908112126d6c6578706572696d656e74616cf564736f6c63430005100040",
  "source": "pragma solidity ^0.5.0;\r\n\r\npragma experimental ABIEncoderV2; // Enable experimental ABIEncoderV2\r\n\r\ncontract Users {\r\n    uint public UsersCount = 0;\r\n\r\n    struct Skill {\r\n        uint id;\r\n        string name;\r\n    }\r\n\r\n    struct User {\r\n        // User specified skills.\r\n        uint[] skillIds;\r\n        // Skill id and endorsement id\r\n        mapping(uint => string) endorsements;\r\n    }\r\n\r\n    mapping(string => User) users;\r\n\r\n    constructor() public {}\r\n\r\n    function returnTest() public returns(string memory){\r\n        return \"Success!\";\r\n    }\r\n\r\n    // Returns endorsed skillIds and endorsementIds\r\n    function getUser(string memory _id) public view returns(uint[] memory, string[] memory) {\r\n        uint[] memory userSkills = users[_id].skillIds;\r\n        string[] memory userEndorsements = new string[](userSkills.length);\r\n\r\n        for (uint i = 0; i < userSkills.length; i++) {\r\n            userEndorsements[i] = users[_id].endorsements[userSkills[i]];\r\n        }\r\n\r\n        return (userSkills, userEndorsements);\r\n    }\r\n\r\n    function createUser(string memory _id) public {\r\n        UsersCount++;\r\n        users[_id] = User(new uint[](0));\r\n    }\r\n\r\n    function addEndorsement(string memory _id, uint _skillId, string memory _endorsementId) public {\r\n        require(_skillId > 0, \"Invalid skill ID\");\r\n\r\n        User storage user = users[_id];\r\n        user.skillIds.push(_skillId);\r\n\r\n        user.endorsements[_skillId] = _endorsementId;\r\n    }\r\n}\r\n",
  "sourcePath": "D:\\MajorProject\\skillverifyx\\skillVerifyX-back\\contracts\\Users.sol",
  "compiler": {
    "name": "solc",
    "version": "0.5.16+commit.9c3226ce.Emscripten.clang"
  },
  "schemaVersion": "3.4.16",
  "updatedAt": "2024-03-01T09:29:29.536Z",
  "networkType": "ethereum",
  "devdoc": {
    "methods": {}
  },
  "userdoc": {
    "methods": {}
  }
}